:020000040800F2
:100000000802002005010008090100080B01000892
:100010000D0100080F010008110100080000000098
:1000200000000000000000000000000013010008B4
:100030001501000800000000170100081901000860
:100040001B0100081B0100081B0100081B01000820
:100050001B0100081B0100081B0100081B01000810
:100060001B0100081B0100081B0100081B01000800
:100070001B0100081B0100081B0100081B010008F0
:100080001B0100081B0100081B0100081B010008E0
:100090001B0100081B0100081B0100081B010008D0
:1000A0001B0100081B0100081B0100081B010008C0
:1000B0001B0100081B0100081B0100081B010008B0
:1000C0001B0100081B0100081B0100081B010008A0
:1000D0001B0100081B0100081B0100081B01000890
:1000E0001B0100081B0100081B010008DFF80CD0F1
:1000F00000F03CFA004800472101000808020020F7
:1001000030BF000005480047FEE7FEE7FEE7FEE7D8
:10011000FEE7FEE7FEE7FEE7FEE7FEE7ED0000088C
:1001200010B5092000F088F9482000F01FF800F011
:10013000DDF915E000200B49086001200A49C1F8EB
:1001400088014FF4967000F028F8012005490860F6
:1001500000200549C1F888014FF4967000F01DF8A1
:10016000E8E70000A0012142008022424FF0E02198
:10017000096921F004014FF0E02211610146C21724
:1001800000EB5272D2101F4B1A70194609784FF4C7
:100190007A7251439A1C118070471A4A921C128835
:1001A00042434FF0E0235A6100229A6101221A6112
:1001B00000BF4FF0E022116911F0010F02D011F4DD
:1001C000803FF6D000224FF0E0231A619A61704719
:1001D0000C4A127842434FF0E0235A6100229A61A0
:1001E00001221A6100BF4FF0E022116911F0010FE6
:1001F00002D011F4803FF6D000224FF0E0231A61C4
:100200009A61704700000020AC4A0A400243AC4BA0
:100210001A607047072323EA00021202A84B1B1D35
:1002200019684FF6FF031940A64B194311434FF0CD
:10023000E023C3F80C1D70472DE9F04704460D4636
:1002400016461F463046F11706EB91714FEAA10999
:10025000F11706EB91718910A6EB810101F0FF0AFD
:10026000042101EBCA0000F0FF0A3846FFF7D2FF75
:10027000C7F1040004FA00F80F203841284040EA92
:10028000080808F00F08202E09DA8F4800680121BD
:10029000B14008434FF0E021C1F800010BE08A486B
:1002A000001D0168A6F120020120904001434FF09B
:1002B000E020C0F80411854850F8290008FA0AF136
:1002C0000143824840F82910BDE8F08770B50D461B
:1002D000CE1701EB9676B310CE1701EB9676B610DB
:1002E000A1EB8606B606340E794DAD6945F00105E1
:1002F000774EB5614FEAB63555F823600F25A54016
:10030000AE43744D45F8236055F8235000FA04F6C7
:100310003543704E46F823506F4D2E6801258D40B1
:100320002E436C4D083DC5F8006412F0010F09D052
:10033000694D0C352E6801258D402E43654D083DD5
:10034000C5F80C6412F0020F09D0634D08352E6811
:1003500001258D402E435F4D083DC5F8086470BDF2
:1003600000B500205A490861C86014204861002087
:100370008861C8610846006840F0010008600846CE
:100380004068564908405249486008460068544948
:1003900008404F4908600846006820F48020086043
:1003A0000846406820F4FE00486000208860002174
:1003B0004FF00060FFF728FF00BD10B5404808303F
:1003C000006840F004004FF0E021C1F8100D4048F3
:1003D000C06940F080503E49C8614248406840F4DE
:1003E0008070404948600846006840F0040008609A
:1003F0000846006840F002000860FFF781FE10BD6B
:100400003048001D2E49091D086070470146084606
:1004100049062F4A926942F001022D4B9A612D4AFA
:10042000083A526822F0E0622A4B083B5A601A46AA
:1004300052680A435A60704730B504460025FFF7FA
:100440008FFF2348006840F480302149086000BFD6
:100450001F480068400CFBD04FF480601C49486086
:10046000A01EC4B20846406840EA8440486008467E
:10047000406840F4803048601B48006840F032001B
:10048000194908601248006840F0807010490860FF
:1004900000BF0F480068400EFBD00D48406840F098
:1004A00002000B49486005E009484068C0F3870531
:1004B00005F00305022DF7D130BD000080FFFF1FBE
:1004C00008ED00E00000FA0500E100E000E400E0D3
:1004D0000010024008000140000401400000FFF845
:1004E000FFFFF6FE00700040002002401B488069BC
:1004F00040F00400194988610846806940F02000F6
:1005000088611748006820F00F001649C1F80408F8
:100510000846D0F8040840F00300C1F80408084673
:10052000D0F80C0840F48070C1F80C080E48D0F8E0
:10053000000420F470600C49C1F800040846D0F8AB
:10054000000440F44070C1F800040846D0F80C04E0
:1005500040F00400C1F80C04704700000010024095
:10056000040801400000014000100140064C074D06
:1005700006E0E06840F0010394E807009847103473
:10058000AC42F6D3FFF7B6FDB0050008D005000871
:1005900002E008C8121F08C1002AFAD1704770474C
:1005A000002001E001C1121F002AFBD170470000AA
:1005B000D00500080000002004000000900500089D
:1005C000D40500080400002004020000A005000873
:0405D0000000000027
:04000005080000ED02
:00000001FF
